:100000000C942A000C9434000C9434000C943400AA
:100010000C9434000C9434000C9434000C94340090
:100020000C9434000C9434000C9434000C94340080
:100030000C9434000C9434000C9434000C94340070
:100040000C9434000C9434000C9434000C94340060
:100050000C94340011241FBECFE5D8E0DEBFCDBF25
:100060000E944B000C9473000C9400008FE084BB42
:1000700083E081BB089582B38E7F82BB089582B3F3
:100080008D7F82BB089582B3816082BB089582B365
:10009000826082BB08950E94360010E021C00E9459
:1000A0003B000E94470015BB89E698E10197F1F7F4
:1000B00000C000000E9443000E943F00D5BB89E6BB
:1000C00098E10197F1F700C00000CF5F01C0C0E0E8
:1000D000C43128F3DF5F01C0D0E0DA30C0F31F5F26
:0A00E0001A30D0F3DACFF894FFCF06
:00000001FF
