S0280000556E6974375F4C6573736F6E315F41737369676E6D656E74345F42757A7A65722E7372656394
S11300000C942A000C9434000C9434000C943400A6
S11300100C9434000C9434000C9434000C9434008C
S11300200C9434000C9434000C9434000C9434007C
S11300300C9434000C9434000C9434000C9434006C
S11300400C9434000C9434000C9434000C9434005C
S11300500C94340011241FBECFE5D8E0DEBFCDBF21
S11300600E943D000C9459000C94000081B38E7FD3
S113007081BB81B3806181BB08950E94360087E80B
S113008093E10197F1F700C00000809BF8CF8099BD
S1130090FECF82B3806182BB9FE32DE083E0915069
S11300A020408040E1F700C0000082B38F7E82BB15
S10900B0E6CFF894FFCF37
S9030000FC
