:100000000C942A000C9461000C947D000C949900CF
:100010000C9434000C9434000C9434000C94340090
:100020000C9434000C9434000C9434000C94340080
:100030000C9434000C9434000C9434000C94340070
:100040000C9434000C9434000C9434000C94340060
:100050000C94340011241FBECFE5D8E0DEBFCDBF25
:100060000E9453000C94B5000C94000081B3806E84
:1000700081BB81B38B7F81BB81B3877F81BB87B31A
:100080008B7F87BB089585B7816085BF85B78C60FE
:1000900085BF84B78F7B84BF8BB7806E8BBF8FB7D4
:1000A00080688FBF08950E9436000E94430082B38B
:1000B0008F7D82BB82B38F7B82BB82B38F7782BB03
:1000C000F6CF1F920F920FB60F9211242F938F939A
:1000D0009F9382B3806282BB2FEF81EE94E0215028
:1000E00080409040E1F700C000009F918F912F91D8
:1000F0000F900FBE0F901F9018951F920F920FB682
:100100000F9211242F938F939F9382B3806482BBAD
:100110002FEF81EE94E0215080409040E1F700C045
:1001200000009F918F912F910F900FBE0F901F9005
:1001300018951F920F920FB60F9211242F938F9341
:100140009F9382B3806882BB2FEF81EE94E02150B1
:1001500080409040E1F700C000009F918F912F9167
:0E0160000F900FBE0F901F901895F894FFCFD0
:00000001FF
