:100000000C942A000C9434000C9434000C943400AA
:100010000C9434000C9434000C9434000C94340090
:100020000C9434000C9434000C9434000C94340080
:100030000C9434000C9434000C9434000C94340070
:100040000C9434000C9434000C9434000C94340060
:100050000C94340011241FBECFE5D8E0DEBFCDBF25
:100060000E943B000C945B000C9400008FE084BB6A
:1000700083E081BB08950E94360020E018C092B34F
:10008000916092BB92B39D7F92BB95B3982B95BB29
:1000900092B39E7F92BB92B3926092BB95B3922B28
:1000A00095BB8F5F01C080E08A3048F32F5F2A3014
:0A00B000D0F315BAE2CFF894FFCFA9
:00000001FF
