S0270000556E6974375F4C6573736F6E31284750494F295F41737369676E6D656E74322E73726563F8
S11300000C942A000C9434000C9434000C943400A6
S11300100C9434000C9434000C9434000C9434008C
S11300200C9434000C9434000C9434000C9434007C
S11300300C9434000C9434000C9434000C9434006C
S11300400C9434000C9434000C9434000C9434005C
S11300500C94340011241FBECFE5D8E0DEBFCDBF21
S11300600E9443000C9468000C94000081B38068E3
S113007081BB81B3806481BB81B3806281BB81B366
S11300808E7F81BB08950E94360082E0809BFECF64
S11300908099FECF833061F0843091F08230B1F7E3
S11300A092B39F7792BB92B3906292BB8F5FEECF75
S11300B092B39F7D92BB92B3906492BB8F5FE6CF65
S11300C082B38F7B82BB82B3806882BB82E0DECF47
S10700D0F894FFCFCE
S9030000FC
