:100000000C942A000C9434000C9434000C943400AA
:100010000C9434000C9434000C9434000C94340090
:100020000C9434000C9434000C9434000C94340080
:100030000C9434000C9434000C9434000C94340070
:100040000C9434000C9434000C9434000C94340060
:100050000C94340011241FBECFE5D8E0DEBFCDBF25
:100060000E9477000C94DD000C94000084B3887F1C
:1000700084BB08958AB38F608ABB8BB38F608BBBC0
:1000800008958FE381BB0895843608F083E69DECE4
:10009000899F912D1124969596959695392F330F1A
:1000A000232F220F220F230F821B282F82B38F7E34
:1000B00082BB82B3806282BB82B3807F982B92BB6B
:1000C0008BE49DE10197F1F700C0000082B38061ED
:1000D00082BB82B38F7D82BB82B3807F282B22BB01
:1000E0008BE49DE10197F1F700C0000008950E94A4
:1000F00036000E943A000E944100C0E098990CC06E
:1001000087E893E10197F1F700C00000989951C08A
:10011000989BFECFC65F4DC099990CC087E893E1CC
:100120000197F1F700C00000999943C0999BFECF59
:10013000CF5F3FC09A9930C087E893E10197F1F70C
:1001400000C000009A9935C09A9BFECFC13341F49C
:100150009BB381E089278BBB8C2F0E944400FCCF8E
:100160009BB382E089278BBB9BB384E089278BBB41
:100170009BB388E098279BBB9FE322E43FE091502C
:1001800020403040E1F700C000009BB389278BBBC3
:100190008C2F0E944400FCCF9B990BC087E893E111
:1001A0000197F1F700C000009B9903C0999BFECF17
:0E01B000C0E08C2F0E944400A1CFF894FFCF36
:00000001FF
