:100000000C942A000C943F000C943F000C943F0089
:100010000C943F000C943F000C943F000C943F0064
:100020000C943F000C943F000C943F000C943F0054
:100030000C943F000C943F000C943F000C943F0044
:100040000C943F000C943F000C943F000C943F0034
:100050000C943F0011241FBECFE5D8E0DEBFCDBF1A
:1000600010E0A0E6B0E0E2E2F1E002C005900D92FF
:10007000A236B107D9F70E944E000C948F000C9461
:10008000000081B3806881BB81B3806481BB81B390
:10009000806281BB81B38E7F81BB08950E94410045
:1000A000809B16C020916000283090F48099FECF8C
:1000B00032B381E090E002C0880F991F2A95E2F7E1
:1000C000832B82BB809160008F5F80936000E8CFBC
:1000D000809BE6CF80916000883010F38099FECF3E
:1000E000893069F08A30A1F08830D1F682B38F77F9
:1000F00082BB809160008F5F80936000D1CF82B31C
:100100008F7B82BB809160008F5F80936000C8CF3F
:1001100082B38F7D82BB85E080936000C1CFF8946D
:02012000FFCF0F
:020122000500D6
:00000001FF
