S01A00004C43445F4B65795061645F447269766572732E737265635C
S11300000C942A000C943F000C943F000C943F0085
S11300100C943F000C943F000C943F000C943F0060
S11300200C943F000C943F000C943F000C943F0050
S11300300C943F000C943F000C943F000C943F0040
S11300400C943F000C943F000C943F000C943F0030
S11300500C943F0011241FBECFE5D8E0DEBFCDBF16
S113006010E0A0E6B0E0EAE5F5E002C005900D92EC
S1130070A437B107D9F70E94ED010C94AB020C949C
S1130080000081B38E7F81BB81B38D7F81BB81B33F
S11300908B7F81BB81B3877F81BB81B3806F81BB41
S11300A08FEF82BB089588B3886088BB89EF90E0A6
S11300B00197F1F700C0000088B3877F88BB0895DB
S11300C0CF93C82F88B38B7F88BB88B38D7F88BBC1
S11300D08BB38F709C2F907F892B8BBB0E94530016
S11300E081EE94E00197F1F700C000002BB330E1FA
S11300F0C39FC0011124922F9F70892B8BBB0E9438
S1130100530083EF91E00197F1F700C00000CF9115
S11301100895813039F4603168F480E8860F0E94D4
S113012060000895823031F4603220F480EC860F50
S11301300E9460000895CF93C82F88B38B7F88BB3B
S113014088B3826088BB8BB38F709C2F907F892B80
S11301508BBB0E94530081EE94E00197F1F700C03D
S113016000002BB330E1C39FC0011124922F9F7074
S1130170892B8BBB0E94530081EE94E00197F1F729
S113018000C00000CF91089581E00E9460000895AE
S113019087E893E10197F1F700C0000087B38E6010
S11301A087BB88B3877F88BB0E94C4008AB3806FF3
S11301B08ABB82E00E94600083E30E94600082E3C5
S11301C00E94600088E20E94600086E00E94600055
S11301D080E80E9460008FE00E9460000895CF9242
S11301E0DF92EF92FF92CF93DF93EC01C12CD12CDD
S11301F0760122C09FEFC91AD90AE90AF90A2196A1
S11302000E949B0080E1C816D104E104F10429F4A2
S113021060E082E00E9489000FC090E2C916D10418
S1130220E104F10449F40E94C40060E081E00E940A
S11302308900C12CD12C760188818111DBCFDF911B
S1130240CF91FF90EF90DF90CF90089580E40E94CB
S1130250600080E00E949B0083E00E949B0086E097
S11302600E949B0088E00E949B0088E10E949B0002
S113027080E10E949B0080E10E949B0080E10E943B
S11302809B0087E00E949B0088E10E949B0080E025
S11302900E949B0080E00E949B0080E00E949B00E3
S11302A080E00E949B0080E00E949B0080E00E940E
S11302B09B008CE10E949B0083E00E949B0080E0F5
S11302C00E949B0080E00E949B0080E00E949B00B3
S11302D080E00E949B0080E00E949B0080E00E94DE
S11302E09B0080E00E949B0080E10E949B0088E1CB
S11302F00E949B0086E00E949B0083E00E949B007A
S113030081E00E949B0081E00E949B0081E00E94AA
S11303109B0081E00E949B0081E00E949B0083E09F
S11303200E949B0082E00E949B0084E00E949B004C
S113033088E10E949B0080E10E949B0080E00E9473
S11303409B0080E00E949B0080E00E949B0080E074
S11303500E949B0080E00E949B0080E00E949B0022
S113036080E00E949B0087E00E949B008CE10E9439
S11303709B0080E00E949B0080E00E949B0080E044
S11303800E949B0080E00E949B0080E00E949B00F2
S113039080E00E949B0088E10E949B0087E00E940D
S11303A09B0080E10E949B0080E10E949B0088E109
S11303B00E949B0088E00E949B0084E00E949B00B6
S11303C083E00E949B0081E00E949B0080E00E94E9
S11303D09B0008950E949B0008950E94C8000E94FB
S11303E041000E9426018CE00E94600065E081E0EB
S11303F00E94890080E690E00E94EF0083EF91E084
S11304000197F1F700C0000065E082E00E948900D6
S113041088E690E00E94EF0083EF91E00197F1F706
S113042000C0000010E0DFEFC0E023C06C2F81E0CB
S11304300E948900812F0E94EA019FE926E881E059
S1130440915020408040E1F700C000006D2F81E012
S11304500E94890080E20E949B009FE926E881E0D7
S1130460915020408040E1F700C00000CF5FDF5F83
S11304701F5FC430D8F26D2F81E00E94890080E2B2
S11304800E949B009FE926E881E091502040804033
S1130490E1F700C00000C15027C06C2F82E00E9429
S11304A08900812F0E94EA019FE926E881E09150AA
S11304B020408040E1F700C00000C33089F06D2F78
S11304C082E00E94890080E20E949B009FE926E866
S11304D081E0915020408040E1F700C0000001C05D
S11304E0D4E0C150D1501F5FC111D7CF6D2F82E02E
S11304F00E94890080E20E949B009FE926E881E037
S1130500915020408040E1F700C000006C2F82E051
S11305100E948900812F0E949B009FE926E881E0C8
S1130520915020408040E1F700C000006C2F82E031
S11305300E94890080E20E949B009FE926E881E0F6
S1130540915020408040E1F700C0000060E081E06D
S10D05500E94890067CFF894FFCFE2
S113055A4C6F6164696E6700506C656173652057FE
S107056A616974004B
S9030000FC
